:100000000C9460000C9488000C9488000C94880078
:100010000C9488000C9488000C9488000C94880040
:100020000C9488000C9488000C9488000C94880030
:100030000C9488000C9488000C9488000C94880020
:100040000C94CA010C9488000C9488000C948800CD
:100050000C9488000C9488000C9488000C94880000
:100060000C9488000C948800000102030405000031
:100070000008000201000003040700000000000067
:10008000000000000000250028002B0000000000F8
:10009000240027002A0004040404040404040202C7
:1000A00002020202030303030303010204081020F7
:1000B00040800102040810200102040810200F04EF
:1000C00011241FBECFEFD8E0DEBFCDBF21E0A4E1F9
:1000D000B1E001C01D92AB33B207E1F711E0A0E03F
:1000E000B1E0E4E7F8E002C005900D92A431B10759
:1000F000D9F710E0C0E6D0E004C02197FE010E94CD
:100100003204CF35D107C9F70E9414020C94380489
:100110000C94000090E0FC01E655FF4F24918A56B4
:100120009F4FFC018491882399F090E0880F991FDC
:10013000FC01E457FF4FA591B491FC01EE57FF4F2E
:10014000859194918FB7F894EC91E22BEC938FBF4B
:10015000089590E0FC01E259FF4F2491FC01E6551F
:10016000FF4F3491FC01EA56FF4FE491EE23C9F0B2
:10017000222339F0233001F1A8F4213019F1223083
:1001800029F1F0E0EE0FFF1FEE57FF4FA591B4915C
:100190008FB7F894EC91611126C030953E233C93C3
:1001A0008FBF08952730A9F02830C9F0243049F7CF
:1001B000809180008F7D03C0809180008F77809335
:1001C0008000DFCF84B58F7784BDDBCF84B58F7D92
:1001D000FBCF8091B0008F778093B000D2CF809119
:1001E000B0008F7DF9CF3E2BDACF682F80912001B0
:1001F0000E94A900809137019091380182309105C9
:1002000038F0880F991F880F991F05970197F1F70C
:10021000089581E00C94F50020911E0130911F019A
:1002200040912001509121012417350721F0682FBA
:10023000822F0C94A90008953FB7F89480911A0179
:1002400090911B01A0911C01B0911D0126B5A89BA6
:1002500005C02F3F19F00196A11DB11D3FBFBA2F58
:10026000A92F982F8827BC01CD01620F711D811D18
:10027000911D42E0660F771F881F991F4A95D1F79D
:1002800008958EBD00000DB407FEFDCF8EB5089514
:100290000F931F93009122011091230120912401BB
:1002A0003091250140E052E16AE770E080E00417F8
:1002B00015072607370740F47695679557954795B4
:1002C0008F5F8630A1F787E0982F906A969580958A
:1002D00081709CBD8DBD80E01F910F910C94F50045
:1002E000CF93C82F0E9448018C2F80620E94410149
:1002F00080932601CF910C940901CF93C82F0E94BF
:1003000048018C2F0E944101809326018FEF0E94AB
:100310004101C82F0E9409018C2FCF9108950F939E
:100320001F93CF93182FC62F0E944801812F806200
:100330000E9441018093260100E011E0C15030F09D
:10034000F80181918F010E944101F8CFCF911F9157
:100350000F910C9409010E94480180E50E9441011F
:100360008093260183E70E9441010C940901CF93F9
:10037000DF93D82FC62F0E9448018D2F80620E94E4
:100380004101809326018C2F0E944101DF91CF9182
:100390000C9409011F920F920FB60F9211242F9304
:1003A0003F938F939F93AF93BF938091160190914A
:1003B0001701A0911801B09119013091150123E0A6
:1003C000230F2D3758F50196A11DB11D209315015E
:1003D0008093160190931701A0931801B09319010F
:1003E00080911A0190911B01A0911C01B0911D01F7
:1003F0000196A11DB11D80931A0190931B01A0933A
:100400001C01B0931D01BF91AF919F918F913F91BE
:100410002F910F900FBE0F901F90189526E8230F75
:100420000296A11DB11DD2CFCF93DF93CDB7DEB71A
:100430002D970FB6F894DEBF0FBECDBF789484B56C
:10044000826084BD84B5816084BD85B5826085BDD0
:1004500085B5816085BD80916E00816080936E005E
:100460001092810080918100826080938100809150
:100470008100816080938100809180008160809301
:1004800080008091B10084608093B1008091B000C1
:1004900081608093B00080917A00846080937A00BC
:1004A00080917A00826080937A0080917A008160E6
:1004B00080937A0080917A00806880937A0010920D
:1004C000C10080911E0190911F0120912001309167
:1004D00021018217930731F00E948A008091200148
:1004E0000E948A001FB7F89480911401811124C0E2
:1004F000E0EAF0E08491E4EBF0E09491E82FF0E0A2
:10050000EE0FFF1FE457FF4FA591B491EC91E92343
:1005100021F461E08AE00E94A9008AE00E948A003A
:100520008CB580618CBD8CB580648CBD8DE00E94E3
:100530008A008BE00E948A00809114018F5F809373
:1005400014011FBF80E00E940C0181E00E94F500B1
:100550000E941C016B017C0135E0832E912CA12CA3
:10056000B12C0E941C016C197D098E099F09683EFF
:10057000734081059105A8F321E0821A9108A10832
:10058000B10888EEC80E83E0D81EE11CF11C81146E
:100590009104A104B10429F76FE584E00E94B7013A
:1005A00086E00E947D0145E550E060E070E0409308
:1005B0003301509334016093350170933601682FF5
:1005C000677D86E00E94B70186E00E947D018DE193
:1005D0000E947D01182F0E94AB018DE10E947D01D8
:1005E00091E0181390E090933101882341F01813A3
:1005F00002C00E94AB0160E08DE10E94B701109241
:10060000290160E08CE10E94B701109228016FE39C
:1006100081E00E94B70160E082E00E94B70180E2C1
:100620008093270111E160912701812F0E94B7017A
:100630001F5F1731C1F763E083E00E94B70185E0D7
:1006400080932F016CE40E94B70160E787E00E946D
:10065000B70182EE0E94700181EE0E9470016CE091
:1006600080E00E94B70180E00E947D01809330010C
:1006700081FD0BC0682F62606093300180E00E94B2
:10068000B7018BE19EE40197F1F760912F018AE0B9
:100690000E948F0160912F0180E10E948F0186E00E
:1006A0000E947D01682F676086E00E94B70160E0CC
:1006B00081E00E94B70180912901882351F08DE1EA
:1006C0000E947D01682F6D6F8DE10E94B70110922D
:1006D000290180E00E940C01809133019091340146
:1006E0008230910538F0880F991F880F991F059760
:1006F0000197F1F780912901882319F081EE0E947A
:100700007001609130016E7F6093300180E00E9443
:10071000B70182E00E947D01E8E6F0E0E49161E04B
:1007200070E001C0660FEA95EAF7682B82E00E944C
:10073000B70180E0E82E80E0F82E8DE0E6E0F1E001
:10074000DE01119601900D928A95E1F780912801C2
:1007500010E00DE0811107C010912701012F1E301C
:1007600008F00DE0101B0E94480180EA0E94410140
:1007700080932601CE0101966C01015030F0F60104
:1007800081916F010E944101F8CF115020F080E06B
:100790000E944101FACF0E94090181E00E940C01F0
:1007A0008FB7F8948090160190901701A0901801CF
:1007B000B09019018FBF8FEF0E94700180912601C8
:1007C0008073F1F42FB7F89480911601909117017E
:1007D000A0911801B09119012FBF88199909AA0990
:1007E000BB0980369105A105B10528F381E080930E
:1007F0003201E114F10409F4A0CF0E9400009DCF62
:1008000080E00E940C0160E787E00E94B7018091C0
:10081000260184FFEECF81EE0E947001EACFEEE167
:10082000F1E087E090E09183808388E090E093831B
:10083000828380E896E9A8E9B0E084839583A68363
:10084000B78380E2818781E0828785E0818B138A8C
:1008500085E090E0A0E0B0E0818F928FA38FB48F0D
:1008600014860895EE0FFF1F0590F491E02D099472
:04087000F894FFCF2A
:1008740030303030310048656C6C6F20416C6965F4
:040884006E7300008F
:00000001FF
