:100000000C9463000C948B000C948B000C948B006C
:100010000C948B000C948B000C948B000C948B0034
:100020000C948B000C948B000C948B000C948B0024
:100030000C948B000C948B000C948B000C948B0014
:100040000C94EA020C948B000C945A030C94340325
:100050000C948B000C948B000C948B000C948B00F4
:100060000C948B000C948B000A0B0C0D0E0F0001EE
:100070000203040500000008000201000003040759
:100080000000000000000000000000002500280023
:100090002B0000000000240027002A0004040404B0
:1000A0000404040402020202020203030303030322
:1000B00001020408102040800102040810200102FF
:1000C000040810208C0311241FBECFEFD8E0DEBF40
:1000D000CDBF21E0A6E2B1E001C01D92AC3EB20767
:1000E000E1F711E0A0E0B1E0E0E6FDE002C005903C
:1000F0000D92A632B107D9F710E0C3E6D0E004C0F4
:100100002197FE010E949F06C236D107C9F70E94BF
:10011000E1030C94AE060C94000090E0FC01E05565
:10012000FF4F249184569F4FFC018491882399F0BE
:1001300090E0880F991FFC01EE56FF4FA591B491F6
:10014000FC01E857FF4F859194918FB7F894EC919B
:10015000E22BEC938FBF089590E0FC01EC58FF4F29
:100160002491FC01E055FF4F3491FC01E456FF4F10
:10017000E491EE23C9F0222339F0233001F1A8F4F1
:10018000213019F1223029F1F0E0EE0FFF1FE8577E
:10019000FF4FA591B4918FB7F894EC91611126C0EF
:1001A00030953E233C938FBF08952730A9F0283027
:1001B000C9F0243049F7809180008F7D03C0809181
:1001C00080008F7780938000DFCF84B58F7784BDE8
:1001D000DBCF84B58F7DFBCF8091B0008F7780938C
:1001E000B000D2CF8091B0008F7DF9CF3E2BDACF17
:1001F000682F8091D1010E94AC008091E80190911C
:10020000E9018230910538F0880F991F880F991FF6
:1002100005970197F1F7089581E00C94F8003FB736
:10022000F89480912C0190912D01A0912E01B09114
:100230002F0126B5A89B05C02F3F19F00196A11DDF
:10024000B11D3FBFBA2FA92F982F8827BC01CD0120
:10025000620F711D811D911D42E0660F771F881F7F
:10026000991F4A95D1F70895AF92BF92CF92DF922E
:10027000EF92FF920F931F93CF93DF936C017B015B
:100280008B01040F151FEB015E01AE18BF08C017EC
:10029000D10759F06991D601ED91FC910190F0815F
:1002A000E02DC6010995892B79F7C501DF91CF9122
:1002B0001F910F91FF90EF90DF90CF90BF90AF9084
:1002C0000895FC01538D448D252F30E0842F90E05C
:1002D000821B930B541710F0CF9608950197089541
:1002E000FC01918D828D981761F0A28DAE0FBF2F0A
:1002F000B11D5D968C91928D9F5F9F73928F90E060
:1003000008958FEF9FEF0895FC01918D828D9817CE
:1003100031F0828DE80FF11D858D90E008958FEF0B
:100320009FEF0895FC01918D228D892F90E0805CD4
:100330009F4F821B91098F739927089580E391E065
:100340000E94920121E0892B09F420E0822F089578
:1003500080E090E0892B29F00E949E0181110C948D
:1003600000000895FC01A48DA80FB92FB11DA35A58
:10037000BF4F2C91848D90E001968F739927848FC5
:10038000A689B7892C93A089B1898C9183708064E8
:100390008C93938D848D981306C00288F389E02D89
:1003A00080818F7D80830895EF92FF920F931F933A
:1003B000CF93DF93EC0181E0888F9B8D8C8D981318
:1003C0001AC0E889F989808185FF15C09FB7F89424
:1003D000EE89FF896083E889F98980818370806470
:1003E00080839FBF81E090E0DF91CF911F910F91BB
:1003F000FF90EF900895F62E0B8D10E00F5F1F4FCA
:100400000F731127E02E8C8D8E110CC00FB607FCD8
:10041000FACFE889F989808185FFF5CFCE010E9466
:10042000B201F1CFEB8DEC0FFD2FF11DE35AFF4F21
:10043000F0829FB7F8940B8FEA89FB8980818062F4
:10044000CFCFCF93DF93EC01888D8823B9F0AA89B1
:10045000BB89E889F9898C9185FD03C0808186FD7F
:100460000DC00FB607FCF7CF8C9185FFF2CF8081CE
:1004700085FFEDCFCE010E94B201E9CFDF91CF9190
:1004800008958EBD00000DB407FEFDCF8EB5089512
:100490000F931F930091D3011091D4012091D501A6
:1004A0003091D60140E052E16AE770E080E0041745
:1004B00015072607370740F47695679557954795B2
:1004C0008F5F8630A1F787E0982F906A9695809588
:1004D00081709CBD8DBD80E01F910F910C94F80040
:1004E000CF93C82F0E9448028C2F80620E94410245
:1004F0008093D701CF910C940C01CF93C82F0E9409
:1005000048028C2F0E9441028093D7018FEF0E94F6
:100510004102C82F0E940C018C2FCF910895FF92A9
:100520000F931F93CF93DF93C82FF62E072F142F0F
:100530000E9448028C2F80620E9441028093D70162
:10054000CF2DD02F115020F089910E944102FACF77
:10055000DF91CF911F910F91FF900C940C010E949D
:10056000480280E50E9441028093D70183E70E9400
:1005700041020C940C01CF93DF93D82FC62F0E9419
:1005800048028D2F80620E9441028093D7018C2FF8
:100590000E944102DF91CF910C940C016091E10126
:1005A00061FD0AC062606093E10180E00E94BB02CD
:1005B0008BE19EE40197F1F70895FC010190002082
:1005C000E9F73197AF01481B590BBC0180E391E07B
:1005D0000C9434011F920F920FB60F9211242F9397
:1005E0003F938F939F93AF93BF93809128019091F6
:1005F0002901A0912A01B0912B013091270123E01C
:10060000230F2D3758F50196A11DB11D2093270109
:100610008093280190932901A0932A01B0932B0184
:1006200080912C0190912D01A0912E01B0912F016C
:100630000196A11DB11D80932C0190932D01A093D3
:100640002E01B0932F01BF91AF919F918F913F9158
:100650002F910F900FBE0F901F90189526E8230F33
:100660000296A11DB11DD2CF1F920F920FB60F920D
:1006700011242F933F934F935F936F937F938F93A7
:100680009F93AF93BF93EF93FF9380E391E00E941A
:10069000B201FF91EF91BF91AF919F918F917F91A7
:1006A0006F915F914F913F912F910F900FBE0F90DF
:1006B0001F9018951F920F920FB60F9211242F932F
:1006C0008F939F93EF93FF93E0914001F09141014D
:1006D0008081E0914601F091470182FD1BC090812D
:1006E000809149018F5F8F7320914A01821741F0F9
:1006F000E0914901F0E0E05DFE4F958F8093490164
:10070000FF91EF919F918F912F910F900FBE0F90BE
:100710001F9018958081F4CFE0E3F1E013821282FC
:1007200088EE93E0A0E0B0E084839583A683B7834E
:100730008AE091E09183808385EC90E095878487BF
:1007400084EC90E09787868780EC90E0918B808B9B
:1007500081EC90E0938B828B82EC90E0958B848B84
:1007600086EC90E0978B868B118E128E138E148EF2
:10077000EFECF1E087E090E09183808388E090E007
:100780009383828380E896E9A8E9B0E08483958327
:10079000A683B78380E2818781E0828785E0818BB1
:1007A000138A85E090E0A0E0B0E0818F928FA38F64
:1007B000B48F14860E940F017093CE016093CD0117
:1007C0000895CF93DF93CDB7DEB7C154D1090FB6EB
:1007D000F894DEBF0FBECDBF789484B5826084BD2F
:1007E00084B5816084BD85B5826085BD85B5816035
:1007F00085BD80916E00816080936E0010928100B3
:10080000809181008260809381008091810081606D
:10081000809381008091800081608093800080912E
:10082000B10084608093B1008091B00081608093BA
:10083000B00080917A00846080937A0080917A0081
:10084000826080937A0080917A00816080937A0040
:1008500080917A00806880937A001092C100E091C4
:100860004001F091410182E08083E0913C01F091F0
:100870003D011082E0913E01F0913F018FEC8083B9
:1008800010924801E0914401F091450186E0808397
:10089000E0914201F0914301808180618083E09189
:1008A0004201F0914301808188608083E0914201A0
:1008B000F0914301808180688083E0914201F09152
:1008C000430180818F7D80838091CF019091D00101
:1008D0002091D1013091D2018217930731F00E940B
:1008E0008D008091D1010E948D001FB7F8948091F6
:1008F0002601811124C0E6EAF0E08491EAEBF0E001
:100900009491E82FF0E0EE0FFF1FEE56FF4FA591F8
:10091000B491EC91E92321F461E08AE00E94AC00FB
:100920008AE00E948D008CB580618CBD8CB580649E
:100930008CBD8DE00E948D008BE00E948D00809127
:1009400026018F5F809326011FBF8091CF01909178
:10095000D0012091D1013091D2018217930719F073
:1009600060E00E94AC0081E00E94F8000E940F014C
:100970004B015C0155E0C52ED12CE12CF12C0E94DD
:100980000F01681979098A099B09683E734081053E
:100990009105A8F321E0C21AD108E108F10888EE18
:1009A000880E83E0981EA11CB11CC114D104E1047F
:1009B000F10429F76FE584E00E94BB0286E00E9403
:1009C0007D0245E550E060E070E04093E401509323
:1009D000E5016093E6017093E701682F677D86E08B
:1009E0000E94BB0286E00E947D028DE10E947D0292
:1009F000182F0E94AF028DE10E947D0291E0181332
:100A000090E09093E201882341F0181302C00E9405
:100A1000AF0260E08DE10E94BB021092DA0160E05B
:100A20008CE10E94BB021092D9016FE381E00E9429
:100A3000BB0260E082E00E94BB0280E28093D801AA
:100A400011E16091D801812F0E94BB021F5F173115
:100A5000C1F763E083E00E94BB0285E08093E00180
:100A60006CE40E94BB0260E787E00E94BB0282EE5A
:100A70000E94700281EE0E9470026CE080E00E9491
:100A8000BB0280E00E947D028093E1010E94CE02C1
:100A90004091E00150E060E071E08BED91E00E9458
:100AA000A506E8E6F0E084914091E00160E071E0A5
:100AB0000E948F0282E00E947D020EE610E0F801A3
:100AC000949161E070E001C0660F9A95EAF7682B97
:100AD00082E00E94BB0260E081E00E94BB02809144
:100AE000DA01882351F08DE10E947D02682F6D6F3D
:100AF0008DE10E94BB021092DA0186E00E947D0225
:100B0000682F676086E00E94BB020E94CE0260915F
:100B1000E10161606093E10180E00E94BB0260E757
:100B200087E00E94BB028091CF019091D00120917B
:100B3000D1013091D2018217930719F061E00E9430
:100B4000AC008091DB01882309F447C04091E001AB
:100B50006BED71E08AE00E948F023EE1332E2E01A0
:100B6000F4E24F0E511C4AE0842E912CA12CB12CA2
:100B70008FEF0E9470028091D70190E09595879544
:100B80008770863008F096C01BA21AA2F201232DAE
:100B900011922A95E9F78091D901811130C0809195
:100BA000D801E82E813210F090E2E92EF82EFE18DE
:100BB0000E94480281E60E9441028093D7018E0183
:100BC0000E5D1F4F3801EA948FEFE816E1F00E94A6
:100BD0004102F80181938F01F6CF82E00E947D02ED
:100BE000F801049121E030E001C0220F0A95EAF7F4
:100BF0002095622F682382E00E94BB02AECFF12CC9
:100C000080E2E82ED5CFFA94FFEFFF1621F08FEFA8
:100C10000E944102F8CF0E940C0160E487E00E942C
:100C2000BB020E940F012091CD013091CE018B01BA
:100C3000021B130B88E191E00E94DD026801110F95
:100C4000EE08FF08F7FE43C06DE280E391E00E94EA
:100C5000D40122273327A9012C193D094E095F0928
:100C600019A2CE0181967C01CA01B901A5019401A6
:100C70000E947D06605DF70162937F0121153105B9
:100C80004105510589F7E114F10419F0C7010E94EB
:100C9000DD0280E291E00E94DD02C3010E94DD02DC
:100CA00083E291E00E94DD020E940F017093CE0169
:100CB0006093CD0180E090E0892B09F459CF0E9428
:100CC0009E01882309F454CF0E94000051CFA70150
:100CD000960119A2CE0181967C01CA01B901A50134
:100CE00094010E947D06605DF70162937F012115EA
:100CF00031054105510589F7C6CFA1E21A2EAA1B7D
:100D0000BB1BFD010DC0AA1FBB1FEE1FFF1FA217BB
:100D1000B307E407F50720F0A21BB30BE40BF50BB8
:100D2000661F771F881F991F1A9469F76095709541
:100D3000809590959B01AC01BD01CF010895EE0F08
:100D4000FF1F0590F491E02D0994FB01DC0102C026
:100D500001900D9241505040D8F70895F894FFCF7C
:100D600030303030310000000000D4013401610126
:100D7000210292017001840164656C61793A20005E
:060D8000203B000D0A00FB
:00000001FF
