:100000000C9460000C9488000C9488000C94880078
:100010000C9488000C9488000C9488000C94880040
:100020000C9488000C9488000C9488000C94880030
:100030000C9488000C9488000C9488000C94880020
:100040000C944C030C9488000C94BC030C94960301
:100050000C9488000C9488000C9488000C94880000
:100060000C9488000C948800000102030405000031
:100070000000240027002A000000000025002800BE
:100080002B00040404040404040402020202020219
:10009000030303030303010204081020408001024C
:1000A00004081020010204081020000000080002CB
:1000B0000100000304070000000000000000EE0340
:1000C00011241FBECFEFD8E0DEBFCDBF21E0A0E3FB
:1000D000B1E001C01D92A43FB207E1F711E0A0E03A
:1000E000B1E0E8EDFDE002C005900D92A033B1074C
:1000F000D9F710E0C0E6D0E004C02197FE010E94CD
:10010000E406CF35D107C9F70E943D040C94EA06F6
:100110000C94000090E0FC01E655FF4F2491FC0197
:10012000EA56FF4F3491FC01EE57FF4FE491EE2366
:10013000C9F0222339F0233001F1A8F4213019F15C
:10014000223029F1F0E0EE0FFF1FE858FF4FA59194
:10015000B4918FB7F894EC91611126C030953E238D
:100160003C938FBF08952730A9F02830C9F0243080
:1001700049F7809180008F7D03C0809180008F7748
:1001800080938000DFCF84B58F7784BDDBCF84B5CB
:100190008F7DFBCF8091B0008F778093B000D2CF5E
:1001A0008091B0008F7DF9CF3E2BDACF682F809100
:1001B000D9010E948A008091F0019091F101823072
:1001C000910538F0880F991F880F991F059701979F
:1001D000F1F7089581E00C94D6002091D701309179
:1001E000D8014091D9015091DA012417350721F047
:1001F000682F822F0C948A000895CF93DF9390E0AC
:10020000FC01EA56FF4F24918E579F4FFC018491C9
:100210008823D1F090E0880F991FFC01E259FF4F2D
:10022000A591B491FC01E858FF4FC591D49161119B
:100230000EC09FB7F8948C91E22FE0958E238C939B
:100240002881E223E8839FBFDF91CF9108958FB784
:10025000F894EC91E22BEC938FBFF6CF8E50806434
:1002600080937C0080917A00806480937A008091F2
:100270007A0086FDFCCF80917800909179000895F6
:100280003FB7F8948091360190913701A0913801E1
:10029000B091390126B5A89B05C02F3F19F00196F2
:1002A000A11DB11D3FBFBA2FA92F982F8827BC01D0
:1002B000CD01620F711D811D911D42E0660F771FF8
:1002C000881F991F4A95D1F70895AF92BF92CF9298
:1002D000DF92EF92FF920F931F93CF93DF936C0106
:1002E0007B018B01040F151FEB015E01AE18BF08E7
:1002F000C017D10759F06991D601ED91FC91019099
:10030000F081E02DC6010995892B79F7C501DF91B0
:10031000CF911F910F91FF90EF90DF90CF90BF9002
:10032000AF900895FC01538D448D252F30E0842F2C
:1003300090E0821B930B541710F0CF96089501970D
:100340000895FC01918D828D981761F0A28DAE0FFA
:10035000BF2FB11D5D968C91928D9F5F9F73928F81
:1003600090E008958FEF9FEF0895FC01918D828DAD
:10037000981731F0828DE80FF11D858D90E008957A
:100380008FEF9FEF0895FC01918D228D892F90E0D2
:10039000805C9F4F821B91098F73992708958AE390
:1003A00091E00E94C30121E0892B09F420E0822F13
:1003B000089580E090E0892B29F00E94CF018111FF
:1003C0000C9400000895FC01A48DA80FB92FB11D55
:1003D000A35ABF4F2C91848D90E001968F7399277B
:1003E000848FA689B7892C93A089B1898C91837059
:1003F00080648C93938D848D981306C00288F38952
:10040000E02D80818F7D80830895EF92FF920F937E
:100410001F93CF93DF93EC0181E0888F9B8D8C8DB0
:1004200098131AC0E889F989808185FF15C09FB7A4
:10043000F894EE89FF896083E889F9898081837067
:10044000806480839FBF81E090E0DF91CF911F9116
:100450000F91FF90EF900895F62E0B8D10E00F5F37
:100460001F4F0F731127E02E8C8D8E110CC00FB60D
:1004700007FCFACFE889F989808185FFF5CFCE01A5
:100480000E94E301F1CFEB8DEC0FFD2FF11DE35A3C
:10049000FF4FF0829FB7F8940B8FEA89FB89808128
:1004A0008062CFCFCF93DF93EC01888D8823B9F0A2
:1004B000AA89BB89E889F9898C9185FD03C080816F
:1004C00086FD0DC00FB607FCF7CF8C9185FFF2CFEC
:1004D000808185FFEDCFCE010E94E301E9CFDF915E
:1004E000CF9108958EBD00000DB407FEFDCF8EB5EF
:1004F00008950F931F930091DB011091DC0120916F
:10050000DD013091DE0140E052E16AE770E080E019
:10051000041715072607370740F476956795579512
:1005200047958F5F8630A1F787E0982F906A969560
:10053000809581709CBD8DBD80E01F910F910C94C2
:10054000D600CF93C82F0E9479028C2F80620E9420
:1005500072028093DF01CF910C94EA00CF93C82FF1
:100560000E9479028C2F0E9472028093DF018FEF2C
:100570000E947202C82F0E94EA008C2FCF9108952A
:100580000F931F93CF93182FC62F0E947902812FAC
:1005900080620E9472028093DF0100E011E0C1508E
:1005A00030F0F80181918F010E947202F8CFCF9153
:1005B0001F910F910C94EA000E94790280E50E943D
:1005C00072028093DF0183E70E9472020C94EA00BA
:1005D000CF93DF93D82FC62F0E9479028D2F806290
:1005E0000E9472028093DF018C2F0E947202DF91C1
:1005F000CF910C94EA00FC0101900020E9F73197BB
:10060000AF01481B590BBC018AE391E00C946501D2
:100610008F929F92AF92BF920F931F93CF93DF93CE
:10062000CDB7DEB7A1970FB6F894DEBF0FBECDBF32
:1006300019A2423008F44AE08E010F5D1F4F842E4C
:10064000912CB12CA12CA50194010E94C206E62F89
:10065000B901CA01EA30F4F4E05DD801EE938D01EE
:10066000232B242B252B79F790E080E0109719F0AD
:10067000CD010E94FB02A1960FB6F894DEBF0FBE1B
:10068000CDBFDF91CF911F910F91BF90AF909F9001
:100690008F900895E95CE1CF1F920F920FB60F92F1
:1006A00011242F933F938F939F93AF93BF93809188
:1006B000320190913301A0913401B0913501309114
:1006C000310123E0230F2D3758F50196A11DB11DEF
:1006D000209331018093320190933301A093340130
:1006E000B09335018091360190913701A091380186
:1006F000B09139010196A11DB11D809336019093EF
:100700003701A0933801B0933901BF91AF919F9108
:100710008F913F912F910F900FBE0F901F901895C2
:1007200026E8230F0296A11DB11DD2CF1F920F9272
:100730000FB60F9211242F933F934F935F936F93B4
:100740007F938F939F93AF93BF93EF93FF938AE32E
:1007500091E00E94E301FF91EF91BF91AF919F91D2
:100760008F917F916F915F914F913F912F910F905A
:100770000FBE0F901F9018951F920F920FB60F92F9
:1007800011242F938F939F93EF93FF93E0914A014E
:10079000F0914B018081E0915001F091510182FD77
:1007A0001BC09081809153018F5F8F732091540102
:1007B000821741F0E0915301F0E0E65CFE4F958F27
:1007C00080935301FF91EF919F918F912F910F9003
:1007D0000FBE0F901F9018958081F4CFEAE3F1E0EF
:1007E0001382128288EE93E0A0E0B0E084839583C8
:1007F000A683B7838AE091E09183808385EC90E0C3
:100800009587848784EC90E09787868780EC90E0DA
:10081000918B808B81EC90E0938B828B82EC90E0CB
:10082000958B848B86EC90E0978B868B118E128E45
:10083000138E148EE7EDF1E087E090E091838083E2
:1008400088E090E09383828380E896E9A8E9B0E0AD
:1008500084839583A683B78380E2818781E0828742
:1008600085E0818B138A85E090E0A0E0B0E0818F85
:10087000928FA38FB48F14860895CF93DF9300D007
:1008800000D0CDB7DEB7789484B5826084BD84B5DE
:10089000816084BD85B5826085BD85B5816085BD7B
:1008A00080916E00816080936E0010928100809133
:1008B00081008260809381008091810081608093BB
:1008C0008100809180008160809380008091B100E0
:1008D00084608093B1008091B00081608093B0000B
:1008E00080917A00846080937A0080917A0082609F
:1008F00080937A0080917A00816080937A00809161
:100900007A00806880937A001092C10060E08EE0E7
:100910000E94FD0060E08FE00E94FD00E0914A012E
:10092000F0914B0182E08083E0914601F091470114
:100930001082E0914801F09149018FEC8083109280
:100940005201E0914E01F0914F0186E08083E091E9
:100950004C01F0914D01808180618083E0914C01D8
:10096000F0914D01808188608083E0914C01F0918D
:100970004D01808180688083E0914C01F0914D01B0
:1009800080818F7D80838091D7019091D8012091C3
:10099000D9013091DA018217930741F061E00E949A
:1009A000FD0061E08091D9010E94FD001FB7F8941D
:1009B00080913001811127C0ECE8F0E08491E0EAF9
:1009C000F0E09491E82FF0E0EE0FFF1FE259FF4FA7
:1009D000A591B491EC91E92321F461E08AE00E94B1
:1009E0008A0061E08AE00E94FD008CB580618CBDC8
:1009F0008CB580648CBD61E08DE00E94FD0061E0FB
:100A00008BE00E94FD00809130018F5F8093300168
:100A10001FBF80E00E94ED0081E00E94D6000E948E
:100A200040012B013C0135E0C32ED12CE12CF12CEF
:100A30000E9440016419750986099709683E734050
:100A400081059105A8F321E0C21AD108E108F10857
:100A500088EE480E83E0581E611C711CC114D1043D
:100A6000E104F10429F76FE584E00E94E80286E0E2
:100A70000E94AE0245E550E060E070E04093EC017A
:100A80005093ED016093EE017093EF01682F677D45
:100A900086E00E94E80286E00E94AE028DE10E949C
:100AA000AE02182F0E94DC028DE10E94AE0291E09E
:100AB000181390E09093EA01882341F0181302C0C4
:100AC0000E94DC0260E08DE10E94E8021092E201E7
:100AD00060E08CE10E94E8021092E1016FE381E0A6
:100AE0000E94E80260E082E00E94E80280E28093D7
:100AF000E00111E16091E001812F0E94E8021F5F97
:100B00001731C1F763E083E00E94E80285E080933B
:100B1000E8016CE40E94E80260E787E00E94E802D6
:100B200082EE0E94A10281EE0E94A1026CE080E0B0
:100B30000E94E80280E00E94AE028093E90181FDFC
:100B40000BC0682F62606093E90180E00E94E802B8
:100B50008BE19EE40197F1F76091E8018AE00E9441
:100B6000C0026091E80180E10E94C00286E00E941C
:100B7000AE02682F676086E00E94E80260E081E0D4
:100B80000E94E8028091E201882351F08DE10E94E9
:100B9000AE02682F6D6F8DE10E94E8021092E201B3
:100BA00080E00E94ED008091EC019091ED01823097
:100BB000910538F0880F991F880F991F05970197A5
:100BC000F1F78091E201882319F081EE0E94A102E1
:100BD0006091E9016E7F6093E90180E00E94E80284
:100BE00082E00E94AE02E8E6F0E0E49161E070E0AD
:100BF00001C0660FEA95EAF7682B82E00E94E802DE
:100C0000CC24CA9483E0D82E90E0A92E90E0B92E8F
:100C10008EE00E942E017C018FE00E942E018C014B
:100C200088E191E00E94FB0226014E185F08052C26
:100C3000000C660877084AE0C301B20177FE0DC0D8
:100C40006DE28AE391E00E94050266277727CB01D7
:100C500064197509860997094AE00E94080381E230
:100C600091E00E94FB022801012E000C6608770823
:100C70004AE0C301B20177FE0DC06DE28AE391E064
:100C80000E94050266277727CB016419750986093A
:100C900097094AE00E9408038CE291E00E94FB025F
:100CA000FA82E9821C830B838091E10110E004E069
:100CB000811107C01091E001012F153008F004E008
:100CC000101B0E94790280EA0E9472028093DF0169
:100CD000CE0101967C01015030F0F70181917F0136
:100CE0000E947202F8CF115020F080E00E94720240
:100CF000FACF0E94EA0081E00E94ED008FB7F894DD
:100D00004090320150903301609034017090350171
:100D10008FBF8FEF0E94A1028091DF01807319F5D0
:100D20002FB7F8948091320190913301A091340152
:100D3000B09135012FBF84199509A609B7098036EE
:100D40009105A105B10528F381E08093EB01A11481
:100D5000B10409F45DCF0E94CF01882309F458CF74
:100D60000E94000055CF80E00E94ED0060E787E020
:100D70000E94E8028091DF0184FFE9CF81EE0E94AA
:100D8000A102E5CFA1E21A2EAA1BBB1BFD010DC0DB
:100D9000AA1FBB1FEE1FFF1FA217B307E407F5072B
:100DA00020F0A21BB30BE40BF50B661F771F881F07
:100DB000991F1A9469F760957095809590959B019D
:100DC000AC01BD01CF010895EE0FFF1F0590F49116
:080DD000E02D0994F894FFCF17
:100DD800303030303100000000000502650192011A
:100DE8005202C301A101B5017820617869733A20E4
:100DF800003B207920617869733A20000D0A0000D1
:00000001FF
