:100000000C9463000C948B000C948B000C948B006C
:100010000C948B000C948B000C948B000C948B0034
:100020000C948B000C948B000C948B000C948B0024
:100030000C948B000C948B000C948B000C948B0014
:100040000C944F030C948B000C94BF030C949903F5
:100050000C948B000C948B000C948B000C948B00F4
:100060000C948B000C948B000A0B0C0D0E0F0001EE
:100070000203040500000008000201000003040759
:100080000000000000000000000000002500280023
:100090002B0000000000240027002A0004040404B0
:1000A0000404040402020202020203030303030322
:1000B00001020408102040800102040810200102FF
:1000C00004081020F10311241FBECFEFD8E0DEBFDB
:1000D000CDBF21E0A4E3B1E001C01D92A83FB2076B
:1000E000E1F711E0A0E0B1E0E6E7FEE002C0059034
:1000F0000D92A433B107D9F710E0C3E6D0E004C0F5
:100100002197FE010E942A07C236D107C9F70E9433
:1001100040040C9439070C94000090E0FC01E05579
:10012000FF4F249184569F4FFC018491882399F0BE
:1001300090E0880F991FFC01EE56FF4FA591B491F6
:10014000FC01E857FF4F859194918FB7F894EC919B
:10015000E22BEC938FBF089590E0FC01EC58FF4F29
:100160002491FC01E055FF4F3491FC01E456FF4F10
:10017000E491EE23C9F0222339F0233001F1A8F4F1
:10018000213019F1223029F1F0E0EE0FFF1FE8577E
:10019000FF4FA591B4918FB7F894EC91611126C0EF
:1001A00030953E233C938FBF08952730A9F0283027
:1001B000C9F0243049F7809180008F7D03C0809181
:1001C00080008F7780938000DFCF84B58F7784BDE8
:1001D000DBCF84B58F7DFBCF8091B0008F7780938C
:1001E000B000D2CF8091B0008F7DF9CF3E2BDACF17
:1001F000682F8091DD010E94AC008091F401909104
:10020000F5018230910538F0880F991F880F991FEA
:1002100005970197F1F7089581E00C94F8003FB736
:10022000F89480913A0190913B01A0913C01B091EA
:100230003D0126B5A89B05C02F3F19F00196A11DD1
:10024000B11D3FBFBA2FA92F982F8827BC01CD0120
:10025000620F711D811D911D42E0660F771F881F7F
:10026000991F4A95D1F70895AF92BF92CF92DF922E
:10027000EF92FF920F931F93CF93DF936C017B015B
:100280008B01040F151FEB015E01AE18BF08C017EC
:10029000D10759F06991D601ED91FC910190F0815F
:1002A000E02DC6010995892B79F7C501DF91CF9122
:1002B0001F910F91FF90EF90DF90CF90BF90AF9084
:1002C0000895FC01538D448D252F30E0842F90E05C
:1002D000821B930B541710F0CF9608950197089541
:1002E000FC01918D828D981761F0A28DAE0FBF2F0A
:1002F000B11D5D968C91928D9F5F9F73928F90E060
:1003000008958FEF9FEF0895FC01918D828D9817CE
:1003100031F0828DE80FF11D858D90E008958FEF0B
:100320009FEF0895FC01918D228D892F90E0805CD4
:100330009F4F821B91098F73992708958EE391E057
:100340000E94920121E0892B09F420E0822F089578
:1003500080E090E0892B29F00E949E0181110C948D
:1003600000000895FC01A48DA80FB92FB11DA35A58
:10037000BF4F2C91848D90E001968F739927848FC5
:10038000A689B7892C93A089B1898C9183708064E8
:100390008C93938D848D981306C00288F389E02D89
:1003A00080818F7D80830895EF92FF920F931F933A
:1003B000CF93DF93EC0181E0888F9B8D8C8D981318
:1003C0001AC0E889F989808185FF15C09FB7F89424
:1003D000EE89FF896083E889F98980818370806470
:1003E00080839FBF81E090E0DF91CF911F910F91BB
:1003F000FF90EF900895F62E0B8D10E00F5F1F4FCA
:100400000F731127E02E8C8D8E110CC00FB607FCD8
:10041000FACFE889F989808185FFF5CFCE010E9466
:10042000B201F1CFEB8DEC0FFD2FF11DE35AFF4F21
:10043000F0829FB7F8940B8FEA89FB8980818062F4
:10044000CFCFCF93DF93EC01888D8823B9F0AA89B1
:10045000BB89E889F9898C9185FD03C0808186FD7F
:100460000DC00FB607FCF7CF8C9185FFF2CF8081CE
:1004700085FFEDCFCE010E94B201E9CFDF91CF9190
:1004800008958EBD00000DB407FEFDCF8EB5089512
:100490000F931F930091DF011091E0012091E10182
:1004A0003091E20140E052E16AE770E080E0041739
:1004B00015072607370740F47695679557954795B2
:1004C0008F5F8630A1F787E0982F906A9695809588
:1004D00081709CBD8DBD80E01F910F910C94F80040
:1004E000CF93C82F0E9448028C2F80620E94410245
:1004F0008093E301CF910C940C01CF93C82F0E94FD
:1005000048028C2F0E9441028093E3018FEF0E94EA
:100510004102C82F0E940C018C2FCF910895FF92A9
:100520000F931F93CF93DF93C82FF62E072F142F0F
:100530000E9448028C2F80620E9441028093E30156
:10054000CF2DD02F115020F089910E944102FACF77
:10055000DF91CF911F910F91FF900C940C010E949D
:10056000480280E50E9441028093E30183E70E94F4
:1005700041020C940C01CF93DF93D82FC62F0E9419
:1005800048028D2F80620E9441028093E3018C2FEC
:100590000E944102DF91CF910C940C016091ED011A
:1005A00061FD0AC062606093ED0180E00E94BB02C1
:1005B0008BE19EE40197F1F70895FC010190002082
:1005C000E9F73197AF01481B590BBC018EE391E06D
:1005D0000C9434018F929F92AF92BF920F931F930E
:1005E000CF93DF93CDB7DEB7A1970FB6F894DEBFF8
:1005F0000FBECDBF19A2423008F44AE08E010F5D54
:100600001F4F842E912CB12CA12CA50194010E9486
:100610000807E62FB901CA01EA30F4F4E05DD80119
:10062000EE938D01232B242B252B79F790E080E08E
:10063000109719F0CD010E94DD02A1960FB6F89433
:10064000DEBF0FBECDBFDF91CF911F910F91BF9045
:10065000AF909F908F900895E95CE1CFCF92DF92A9
:10066000EF92FF92CF93DF936B017C016DE28EE3FB
:1006700091E00E94D401EC0166277727CB016C1929
:100680007D098E099F094AE00E94EA028C0F9D1F96
:10069000DF91CF91FF90EF90DF90CF9008951F9260
:1006A0000F920FB60F9211242F933F938F939F9326
:1006B000AF93BF938091360190913701A09138019B
:1006C000B09139013091350123E0230F2D3758F5D2
:1006D0000196A11DB11D20933501809336019093A1
:1006E0003701A0933801B093390180913A0190917C
:1006F0003B01A0913C01B0913D010196A11DB11DAE
:1007000080933A0190933B01A0933C01B0933D014B
:10071000BF91AF919F918F913F912F910F900FBEFD
:100720000F901F90189526E8230F0296A11DB11D6A
:10073000D2CF1F920F920FB60F9211242F933F9397
:100740004F935F936F937F938F939F93AF93BF93D9
:10075000EF93FF938EE391E00E94B201FF91EF913E
:10076000BF91AF919F918F917F916F915F914F91C9
:100770003F912F910F900FBE0F901F9018951F92D1
:100780000F920FB60F9211242F938F939F93EF9395
:10079000FF93E0914E01F0914F018081E09154016F
:1007A000F091550182FD1BC09081809157018F5FB0
:1007B0008F7320915801821741F0E0915701F0E0CA
:1007C000E25CFE4F958F80935701FF91EF919F91CF
:1007D0008F912F910F900FBE0F901F9018958081D1
:1007E000F4CFEEE3F1E01382128288EE93E0A0E012
:1007F000B0E084839583A683B7838EE091E09183F4
:10080000808385EC90E09587848784EC90E09787DF
:10081000868780EC90E0918B808B81EC90E0938BCD
:10082000828B82EC90E0958B848B86EC90E0978BAA
:10083000868B118E128E138E148EEBEDF1E087E015
:1008400090E09183808388E090E09383828380E8C6
:1008500096E9A8E9B0E084839583A683B78380E214
:10086000818781E0828785E0818B138A85E090E033
:10087000A0E0B0E0818F928FA38FB48F148608958B
:10088000CF93DF9300D000D0CDB7DEB7789484B596
:10089000826084BD84B5816084BD85B5826085BD7C
:1008A00085B5816085BD80916E00816080936E000A
:1008B00010928100809181008260809381008091FC
:1008C00081008160809381008091800081608093AD
:1008D00080008091B10084608093B1008091B0006D
:1008E00081608093B00080917A00846080937A0068
:1008F00080917A00826080937A0080917A00816092
:1009000080937A0080917A00806880937A001092B8
:10091000C10089E00E948D0086E00E948D0082E087
:100920000E948D0083E00E948D0084E00E948D0073
:1009300085E00E948D00E0914E01F0914F0182E030
:100940008083E0914A01F0914B011082E0914C01CB
:10095000F0914D018FEC808310925601E09152018D
:10096000F091530186E08083E0915001F0915101B4
:10097000808180618083E0915001F09151018081FC
:1009800088608083E0915001F091510180818068FE
:100990008083E0915001F091510180818F7D8083AF
:1009A0008091DB019091DC012091DD013091DE012D
:1009B0008217930731F00E948D008091DD010E9423
:1009C0008D001FB7F89480913401811124C0E6EAAC
:1009D000F0E08491EAEBF0E09491E82FF0E0EE0F84
:1009E000FF1FEE56FF4FA591B491EC91E92321F43E
:1009F00061E08AE00E94AC008AE00E948D008CB524
:100A000080618CBD8CB580648CBD8DE00E948D00B2
:100A10008BE00E948D00809134018F5F80933401C0
:100A20001FBF8091DB019091DC012091DD013091AD
:100A3000DE018217930719F060E00E94AC0081E0AC
:100A40000E94F8000E940F014B015C0155E0C52E89
:100A5000D12CE12CF12C0E940F01681979098A0927
:100A60009B09683E734081059105A8F321E0C21AF5
:100A7000D108E108F10888EE880E83E0981EA11CD9
:100A8000B11CC114D104E104F10429F76FE584E03D
:100A90000E94BB0286E00E947D0245E550E060E0D6
:100AA00070E04093F0015093F1016093F201709374
:100AB000F301682F677D86E00E94BB0286E00E94FA
:100AC0007D028DE10E947D02182F0E94AF028DE110
:100AD0000E947D0291E0181390E09093EE0188232C
:100AE00041F0181302C00E94AF0260E08DE10E9445
:100AF000BB021092E60160E08CE10E94BB02109202
:100B0000E5016FE381E00E94BB0260E082E00E94A9
:100B1000BB0280E28093E40111E16091E401812F46
:100B20000E94BB021F5F1731C1F763E083E00E94A0
:100B3000BB0285E08093EC016CE40E94BB0260E79D
:100B400087E00E94BB0282EE0E94700281EE0E944A
:100B500070026CE080E00E94BB0280E00E947D0297
:100B60008093ED010E94CE024091EC0150E064E0E0
:100B700071E087EE91E00E943007E8E6F0E08491B2
:100B80004091EC0164E071E00E948F0282E00E94DB
:100B90007D020EE610E0F801949161E070E001C082
:100BA000660F9A95EAF7682B82E00E94BB0260E02C
:100BB00081E00E94BB028091E601882351F08DE123
:100BC0000E947D02682F6D6F8DE10E94BB02109222
:100BD000E60186E00E947D02682F676086E00E9441
:100BE000BB020E94CE026091ED0161606093ED0155
:100BF00080E00E94BB0260E787E00E94BB02809118
:100C0000DB019091DC012091DD013091DE01821742
:100C1000930719F061E00E94AC008091E7018823FE
:100C2000D9F14091EC0167EE71E08AE00E948F02F9
:100C3000EE24EA9433E0F32E40E0C42E40E0D42EBC
:100C40008FEF0E9470028091E30190E09595879567
:100C50008770863008F04AC08091E50110E004E01A
:100C6000811107C01091E401012F153008F004E054
:100C7000101B0E94480281E60E9441028093E3011A
:100C8000CE0101965C010150C8F08FEF0E94410235
:100C9000F50181935F01F7CF82E00E947D02F801A8
:100CA000049121E030E001C0220F0A95EAF7209577
:100CB000622F682382E00E94BB02BACF115020F05D
:100CC0008FEF0E944102FACF0E940C0160E487E09E
:100CD0000E94BB0289819A81909303018093020153
:100CE0008B819C8190930101809300018CE191E0C4
:100CF0000E94DD028091020190910301B701681BFF
:100D0000790B072E000C880B990B97FF2CC00E94C3
:100D10002E0385E291E00E94DD0260910001709156
:100D20000101072E000C880B990B97FF20C00E9431
:100D30002E0380E391E00E94DD02809100019091FA
:100D40000101883EF3E09F07B4F061E082E00E9479
:100D5000AC0060E083E00E94AC0061E084E00E94AF
:100D6000AC0060E018C04AE00E94EA02D2CF4AE03C
:100D70000E94EA02DECF8536910554F560E082E0FC
:100D80000E94AC0061E083E00E94AC0060E084E07F
:100D90000E94AC0061E085E00E94AC0089E00E9406
:100DA0008D0061E089E00E94AC0086E00E948D0029
:100DB00061E086E00E94AC00C114D10409F440CF88
:100DC0000E949E01882309F43BCF0E94000038CF87
:100DD0008091020190910301883E23E0920734F054
:100DE00061E082E00E94AC0060E0CDCF60E085363B
:100DF00091052CF482E00E94AC0061E0ABCF82E070
:100E00000E94AC0060E083E00E94AC0060E0A6CFEE
:100E1000A1E21A2EAA1BBB1BFD010DC0AA1FBB1FFE
:100E2000EE1FFF1FA217B307E407F50720F0A21B70
:100E3000B30BE40BF50B661F771F881F991F1A94DD
:100E400069F760957095809590959B01AC01BD0107
:100E5000CF010895EE0FFF1F0590F491E02D099446
:100E6000FB01DC0102C001900D9241505040D8F7C7
:060E70000895F894FFCF85
:100E7600F401F40130303030310000000000D401BC
:100E860034016101210292017001840178206178A8
:100E960069733A20003B207920617869733A200013
:040EA6000D0A000031
:00000001FF
